:020000040800F2
:1000000070060020350200083F0D00088D0C000826
:100010003D0D00082B04000821130008000000001B
:10002000000000000000000000000000430D000878
:100030002D04000800000000410D0008B111000867
:100040004F0200084F0200084F0200084F0200084C
:100050004F0200084F0200084F0200084F0200083C
:100060004F0200084F0200084F0200084F0200082C
:100070004F0200084F0200084F0200084F0200081C
:100080004F0200084F0200084F0200080000000065
:100090000000000000000000000000004F02000807
:1000A0004F0200084F0200084F0200084F020008EC
:1000B0004F0200084F0200084F0200084F020008DC
:1000C0004F0200084F0200084F0200084F020008CC
:1000D0004F0200084F0200084F0200080000000015
:1000E0004F0200084F0200084F0200080000000005
:1000F0000000000000000000000000004F020008A7
:10010000000000004F0200084F0200084F020008E4
:1001100000000000000000000000000000000000DF
:100120004F0200084F0200084F0200084F0200086B
:100130004F02000800000000000000000000000066
:100140000000000000000000000000004F02000856
:100150004F0200084F0200084F0200084F0200083B
:100160004F0200084F0200080000000000000000DD
:10017000000000000000000000000000000000007F
:10018000000000004F020008000000000000000016
:100190004F02000800F002F800F03CF80AA090E8D6
:1001A000000C82448344AAF10107DA4501D100F032
:1001B00031F8AFF2090EBAE80F0013F0010F18BFC3
:1001C000FB1A43F001031847C8110000E8110000B2
:1001D000103A24BF78C878C1FAD8520724BF30C873
:1001E00030C144BF04680C60704700000023002445
:1001F00000250026103A28BF78C1FBD8520728BF37
:1002000030C148BF0B6070471FB501F0B4F81FBD87
:1002100010B510BD00F0CFF81146FFF7F5FF01F063
:1002200090F800F0EDF803B4FFF7F2FF03BC00F024
:10023000F5F800000948804709480047FEE7FEE757
:10024000FEE7FEE7FEE7FEE7FEE7FEE7FEE7FEE786
:1002500004480549054A064B704700003112000862
:100260009501000870000020700600207002002038
:100270007002002053EA020C00F069802DE9F04B77
:100280004FF00006002B1FBFB3FA83F503FA05F405
:1002900024FA05F65E4012BF1643B2FA82F502FA5E
:1002A00005F4C5F120051EBF22FA05FC44EA0C0442
:1002B000203556EA044C4FEA144418BF641C4FF032
:1002C00000084FF00009904271EB030C39D300296C
:1002D00019BFB1FA81F701FA07F6B0FA80F700FA10
:1002E00007F6C7F120071EBF20FA07FC46EA0C06F6
:1002F0002037B6FBF4FCA7EB0507103F07F01F0BF8
:10030000CBF120060CFA0BFB2CFA06F644BFB346E1
:100310000026202FA4BF5E464FF0000B5BEA060CC0
:1003200008BF4FF0010B19EB0B09ABFB027C48EB4C
:100330000608C01B06FB02CC0BFB03CC71EB0C01C7
:10034000C1E70B46024641464846BDE8F08B13B56F
:100350004FF000004FF00001AFF30080BDE81C40FB
:1003600070474FF0000200B5134694469646203978
:1003700022BFA0E80C50A0E80C50B1F12001BFF45E
:10038000F7AF090728BFA0E80C5048BF0CC05DF8C4
:1003900004EB890028BF40F8042B08BF704748BF12
:1003A00020F8022B11F0804F18BF00F8012B704786
:1003B000704770477047754600F02CF8AE46050050
:1003C0006946534620F00700854618B020B5FFF770
:1003D0003FFFBDE820404FF000064FF000074FF010
:1003E00000084FF0000B21F00701AC46ACE8C00953
:1003F000ACE8C009ACE8C009ACE8C0098D4670475C
:1004000010B50446AFF300802046BDE81040FFF76A
:100410000ABF000000487047100000200149182062
:10042000ABBEFEE7260002007047FEE77047000003
:1004300070B5044600F004F90546601C02D004487B
:100440000078044400F0FCF8401BA042FAD370BDD1
:10045000000000202DE9F84FDFF8B8A100220124A8
:100460000AF1040B03254FF00F090BF1040E00BF36
:100470000B6804FA02F63340B34273D10F7907F0E8
:100480000307012F01D0022F16D187684FEA4208D7
:1004900005FA08FC27EA0C07D1F80CC00CFA08FC96
:1004A0004CEA070CC0F808C04768B7430E79C6F39A
:1004B000001696403E4346600E79F643B6070DD0CF
:1004C000C768560005FA06FC27EA0C07D1F808C0F1
:1004D0000CFA06FC4CEA070CC0F80CC00E7906F0CA
:1004E0000306022E10D1D60800EB8608D8F820604B
:1004F00057074FEAD76C09FA0CF7BE430F6907FAA2
:100500000CF73743C8F8207006684FEA420C05FA2A
:100510000CF7BE430F7907F0030707FA0CF73743D0
:1005200007604E6816F4403F6DD03B4E376847F485
:1005300080473760366822F0030706F4804600964D
:10054000364E07EB060CDCF8086897073F0F09FAF0
:1005500007F826EA0806DFF8C880404503D14FF0C7
:1005600000081EE04FE0DFF8BC80404502D14FF0AC
:10057000010816E0DFF8B080404502D14FF00208D4
:100580000FE0DFF8A880404502D14FF0030808E0F3
:10059000DFF89C80404502D14FF0040801E04FF0A5
:1005A000070808FA07F848EA0608CCF80888DAF8D5
:1005B00000605746D1F804C09E435FEACC3C00D5AA
:1005C0001E433E60DBF800605F46D1F804C09E43E6
:1005D0005FEA8C3C00D51E433E60DEF80060774643
:1005E000D1F804C09E435FEACC2C00D51E433E6088
:1005F000084F0C373E68D1F804C09E435FEA8C2C4C
:1006000000D51E433E60521C102AFFF431AFBDE8F6
:10061000F88F0000003C01404438024000300140A7
:10062000000002400004024000080240000C0240AA
:10063000001002400AB1816170470904FBE7000025
:10064000014880687047000000000020024881686F
:100650000278114481607047000000200B4810B5FB
:10066000016841F400710160016841F4806101603A
:10067000016841F480710160032000F061F80F20EF
:1006800000F006F800F024F8002010BD003C024005
:1006900070B50D4D04464FF47A712878B1FBF0F037
:1006A0000A490968B1FBF0F000F0DCFA48B9102CF7
:1006B00007D200222146501E00F022F800206C6074
:1006C00070BD012070BD0000000000200C00002063
:1006D0000A4808B5016841F480410160006800F4EF
:1006E000804000900548001F016841F08051016082
:1006F000006800F08050009008BD000044380240BF
:10070000F0B40E4B1B680C46C3F30223C3F107057C
:10071000042D00D90425191D072901D2002300E06A
:10072000DB1E012606FA05F1491E214099409E4034
:10073000761E16403143F0BC00F0F3BD0CED00E036
:10074000064900F0070208684FF6FF03184040EA28
:100750000220034A10430860704700000CED00E0DF
:100760000000FA052DE9F0470E46050065D0DFF8D8
:100770001481D8F80000F7B200F00700B04207D2A9
:1007800088F80070D8F8000000F00700B04254D19B
:1007900028683D4C810712D5400703D5206840F4F6
:1007A000E05020602878000703D5206840F46040BE
:1007B00020602068A96820F0F000084320602878B5
:1007C000C0072DD0304968680839012812D00228A6
:1007D00013D0032811D00968890700292DDA216870
:1007E00021F0030101432160FFF72AFF814641F216
:1007F000883A0EE009688903EFE709688901ECE7A8
:10080000FFF71EFFA0EB0901514502D90320BDE807
:10081000F0872068696800F00C00B0EB810FEFD121
:10082000D8F80010404601F00701B14207D907701F
:10083000006800F00700B04201D00120E7E7287807
:10084000400705D52068E96820F4E050084320609F
:100850002878000706D52068296920F4604040EA1E
:10086000C100206000F018F82168084AC1F30311A4
:10087000515CC8400649086006480068FFF708FF59
:100880000020C4E7003C0240083802408013000802
:100890000C00002004000020154810B5006810F07E
:1008A0000C02144813D04110042A0FD0082A0ED18C
:1008B0000F4C241F2268236802F03F025B0207D519
:1008C0002068C0F38810A0FB010106E0084610BDB7
:1008D0002168C1F38811A1FB00010023FFF7CAFCC6
:1008E0002168C1F30141491C4900B0FBF1F010BD82
:1008F000083802400024F4002DE9F84F04006ED0BF
:100900002078DFF84C93C007A9F104054AD009F11B
:1009100004000168C1F38101012908D00068C0F317
:10092000810002280AD1D9F80000400206D52868C3
:10093000800337D560680028E1D033E06068B0F507
:10094000803F10D0B0F5A02F286810D020F4803060
:100950002860286820F4802028606068A8B1FFF72C
:100960006FFE06460DE0286840F48030F4E740F45E
:1009700080202860F7E700BFFFF762FE801B642835
:1009800073D828688003F7D50CE0FFF759FE0646B8
:1009900005E000BFFFF754FE801B6428F0D82868EC
:1009A0008003F7D42078DFF8AC8280074FF0000A8C
:1009B0003ED5A748001D016811F00C0F08D0006853
:1009C000C0F3810002280BD1D9F80000400207D4FF
:1009D0002868800716D5E068012800D112E033E1CD
:1009E000E068B8B10120C8F80000FFF729FE06460C
:1009F00005E000BFFFF724FE801B0228C0D828684E
:100A00008007F7D52868216920F0F80040EAC10086
:100A100028600DE0C8F800A0FFF712FE064604E0CB
:100A2000FFF70EFE801B02281FD828688007F7D426
:100A30002078000722D5864F87486169703771B1E9
:100A400001210160FFF7FCFD064604E0FFF7F8FD19
:100A5000801B022809D838688007F7D50EE0C0F857
:100A600000A0FFF7EDFD064605E082E0FFF7E8FD98
:100A7000801B02287DD838688007F7D4207840078B
:100A800068D5DFF8CCB100270BF13C0BDBF8000098
:100A9000C0000BD4DBF8001041F08051CBF80010FF
:100AA000DBF80000012700F0805000906B4E3068AA
:100AB000C00510D4306840F480703060FFF7C0FD8E
:100AC000009005E0FFF7BCFD0099401A022850D8BD
:100AD0003068C005F6D55E4EA0686C3601280FD090
:100AE0000528306810D020F001003060306820F018
:100AF00004003060A068B8B1FFF7A2FD00900FE0DD
:100B0000306840F00100F4E740F004003060F7E79F
:100B1000FFF796FD0099411A41F28830814266D86C
:100B200030688007F4D50EE0FFF78AFD009007E0FB
:100B3000FFF786FD0099411A41F28830814256D86C
:100B400030688007F4D42FB1DBF8001021F0805119
:100B5000CBF80010A069C8B33D49091D0968C1F36D
:100B6000810102294AD00228504607D0C8F8600007
:100B700000E03CE0FFF764FD04463BE04746C8F870
:100B80006000FFF75DFD064605E000BFFFF758FD7A
:100B9000801B02282BD828688001F7D4D4E90701EC
:100BA0000843A16A2E4A490802EB0141626A41EA00
:100BB0008211084394F82C1040EA0161C9F8001032
:100BC00001203866FFF73CFD044606E03EE000BF2A
:100BD000FFF736FD001B022809D828688001F7D5E9
:100BE00034E000BFFFF72CFD001B022802D90320D0
:100BF000BDE8F88F28688001F4D427E00128F7D0F9
:100C0000D9F80000E26900F4800191421CD1226A07
:100C100000F03F01914217D147F6C071626A01406E
:100C2000B1EB821F10D1A26A4FF0FF3300F44031C4
:100C300003EB5202B1EB024F06D194F82C1000F0F6
:100C40007060B0EB016F01D00120D1E70020CFE749
:100C50000438024000004742800E474200700040C6
:100C60000000FFFF10B5401EB0F1807F01D30120CE
:100C700010BD4FF0E02460610F21601700F051FBC0
:100C80000020A06107202061002010BDFEE70000C9
:100C90002DE9F04186B014216846FFF762FB244835
:100CA0000024016841F010010160016801F01001A9
:100CB0000591016841F080010160016801F0800147
:100CC0000591016841F0080101600068DFF8648067
:100CD00000F00800059000220F214046FFF7AAFC13
:100CE000154F4FF6FF76002231463846FFF7A2FC3B
:100CF0000C2000900125CDE901546946404603943B
:100D0000FFF7A8FBCDE900650226CDE9024669465A
:100D10003846FFF79FFB0320CDE90005CDE90246E9
:100D200069464046FFF796FB06B0BDE8F08100003B
:100D30003038024000100240000C0240FEE7FEE79F
:100D40007047704710B5344C012211462046FFF71A
:100D500071FC012202212046FFF76CFC01220421D4
:100D60002046FFF767FC012208212046FFF762FCBE
:100D7000012210212046FFF75DFC012220212046A0
:100D8000FFF758FC012240212046FFF753FC0122C7
:100D900080212046FFF74EFC012211022046FFF77A
:100DA00049FC012251022046FFF744FC0122910236
:100DB0002046FFF73FFC0122D1022046FFF73AFC14
:100DC000012211032046FFF735FC01225103204682
:100DD000FFF730FC012291032046FFF72BFC012294
:100DE000D1032046FFF726FC0C4C01221146204679
:100DF000FFF720FC012202212046FFF71BFC012205
:100E000004212046FFF716FC20460122BDE81040D1
:100E10000821FFF70FBC0000000C02400010024048
:100E200010B500F00DFA6420FFF702FB514C0122CF
:100E300011462046FFF7FEFB6420FFF7F9FA012276
:100E400002212046FFF7F6FB6420FFF7F1FA0122AA
:100E500004212046FFF7EEFB6420FFF7E9FA0122A8
:100E600008212046FFF7E6FB6420FFF7E1FA0122A4
:100E700010212046FFF7DEFB6420FFF7D9FA01229C
:100E800020212046FFF7D6FB6420FFF7D1FA01228C
:100E900040212046FFF7CEFB6420FFF7C9FA01226C
:100EA00080212046FFF7C6FB6420FFF7C1FA01222C
:100EB00011022046FFF7BEFB6420FFF7B9FA0122BA
:100EC00051022046FFF7B6FB6420FFF7B1FA01227A
:100ED00091022046FFF7AEFB6420FFF7A9FA01223A
:100EE000D1022046FFF7A6FB6420FFF7A1FA0122FA
:100EF00011032046FFF79EFB6420FFF799FA0122B9
:100F000051032046FFF796FB6420FFF791FA012278
:100F100091032046FFF78EFB6420FFF789FA012238
:100F2000D1032046FFF786FB6420FFF781FA124CBD
:100F3000012211462046FFF77DFB6420FFF778FA77
:100F4000012202212046FFF775FB6420FFF770FAAB
:100F5000012204212046FFF76DFB6420FFF768FAA9
:100F6000012208212046FFF765FBBDE81040642000
:100F7000FFF75EBA000C02400010024070B500F0AE
:100F80005FF96420FFF754FA874C0122114620468E
:100F9000FFF750FB6420FFF74BFA002201212046A7
:100FA000FFF748FB012202212046FFF743FB6420A4
:100FB000FFF73EFA002202212046FFF73BFB012209
:100FC00004212046FFF736FB6420FFF731FA0022A8
:100FD00004212046FFF72EFB012208212046FFF7BF
:100FE00029FB6420FFF724FA002208212046FFF79E
:100FF00021FB012210212046FFF71CFB6420FFF794
:1010000017FA002210212046FFF714FB01222021AD
:101010002046FFF70FFB6420FFF70AFA0022202189
:101020002046FFF707FB012240212046FFF702FB85
:101030006420FFF7FDF9002240212046FFF7FAFA6D
:10104000012280212046FFF7F5FA6420FFF7F0F92E
:10105000002280212046FFF7EDFA012215022946E1
:101060002046FFF7E7FA6420FFF7E2F9002229465D
:101070002046FFF7DFFA0122550229462046FFF7F6
:10108000D9FA6420FFF7D4F9002229462046FFF759
:10109000D1FA0122950229462046FFF7CBFA6420B7
:1010A000FFF7C6F9002229462046FFF7C3FA0122BE
:1010B000D50229462046FFF7BDFA6420FFF7B8F9AC
:1010C000002229462046FFF7B5FA012215032946DA
:1010D0002046FFF7AFFA6420FFF7AAF9002229465D
:1010E0002046FFF7A7FA0122550329462046FFF7BD
:1010F000A1FA6420FFF79CF9002229462046FFF759
:1011000099FA0122950329462046FFF793FA6420B5
:10111000FFF78EF9002229462046FFF78BFA0122BD
:10112000D50329462046FFF785FA6420FFF780F9AA
:10113000002229462046FFF77DFA1C4C0122114669
:101140002046FFF777FA6420FFF772F900220121A9
:101150002046FFF76FFA012202212046FFF76AFAC4
:101160006420FFF765F9002202212046FFF762FAAA
:10117000012204212046FFF75DFA6420FFF758F9A9
:10118000002204212046FFF755FA012208212046BB
:10119000FFF750FA6420FFF74BF92046BDE8704096
:1011A00000220821FFF746BA000C0240001002405E
:1011B000FFF74CBA30B593B030216846FFF7D1F84D
:1011C00014210CA8FFF7CDF817480024016841F05E
:1011D00080510160006800F0805011901348016850
:1011E00021F4404141F4004101600068012500F410
:1011F0004040119028040694CDE900506846FFF75E
:101200007BFB08B172B6FEE70F200C90CDE90D54C0
:101210000F9400210CA81094FFF7A4FA002801D025
:1012200072B6FEE713B030BD403802400070004097
:101230000248016841F470010160704788ED00E0E8
:1012400010B5354C002201212046FFF7F3F90022AA
:1012500002212046FFF7EEF9002204212046FFF785
:10126000E9F9002208212046FFF7E4F900221021C5
:101270002046FFF7DFF9002220212046FFF7DAF9A8
:10128000002240212046FFF7D5F900228021204688
:10129000FFF7D0F90022A1152046FFF7CBF9002275
:1012A00061152046FFF7C6F9002221152046FFF7F9
:1012B000C1F90022E1142046FFF7BCF90022A11475
:1012C0002046FFF7B7F900224FF400512046FFF700
:1012D000B1F900224FF480412046FFF7ABF900221C
:1012E0004FF400412046FFF7A5F90C4C00220121E4
:1012F0002046FFF79FF9002202212046FFF79AF9C6
:10130000002204212046FFF795F920460022BDE87F
:1013100010400821FFF78EB9000C02400010024077
:10132000FEE70907090E002804DB00F1E02080F841
:101330000014704700F00F0000F1E02080F8141D49
:101340007047FFF78BF9FFF735FFFFF7A1FC4FF46C
:101350007A74FFF7F7FC2046FFF76AF8FFF770FF93
:101360002046FFF765F8FFF75BFD2046FFF760F8C2
:10137000FFF704FEEDE74FF04070E1EE100A704712
:101380000000000000000000010203040607080935
:10139000B01300080000002010000000D001000879
:1013A000C01300081000002060060000EC010008D7
:1013B0000100000010000000000000000024F40004
:040000050800019559
:00000001FF
