:100000000C9462000C948A000C948A000C948A0070
:100010000C948A000C948A000C948A000C948A0038
:100020000C948A000C948A000C948A000C948A0028
:100030000C948A000C948A000C948A000C948A0018
:100040000C94A9050C948A000C9477050C94510526
:100050000C948A000C948A000C948A000C948A00F8
:100060000C948A000C948A000000000024002700F1
:100070002A0000000000250028002B0000000008D6
:10008000000201000003040700000000000000005F
:1000900000000000230026002900040404040404D6
:1000A0000404020202020202030303030303010227
:1000B00004081020408001020408102001020408F6
:1000C0001020F30511241FBECFEFD8E0DEBFCDBF57
:1000D00011E0A0E0B1E0E2EEF3E102C005900D9284
:1000E000A633B107D9F722E0A6E3B1E001C01D9223
:1000F000A730B207E1F710E0C2E6D0E004C02197D4
:10010000FE010E94E909C136D107C9F70E945C06C9
:100110000C94EF090C940000CF92DF92EF92FF92C3
:10012000CF93DF93B091FB01A0E08111AB2F8091C1
:10013000FC0190E0880F991FAC0140575F4FC090C1
:100140000102D0900202E0900302F090040230E03D
:1001500020E0FA01C591D491E881B90190E080E0F6
:10016000EB23EA130AC02F5F3F4F6C157D058E0508
:100170009F0578F36FEF7FEFCB01DF91CF91FF9079
:10018000EF90DF90CF900895FC01538D448D252F83
:1001900030E0842F90E0821B930B541710F0CF9621
:1001A000089501970895FC01918D828D981761F053
:1001B000A28DAE0FBF2FB11D5D968C91928D9F5F6A
:1001C0009F73928F90E008958FEF9FEF0895FC0149
:1001D000918D828D981731F0828DE80FF11D858DFC
:1001E00090E008958FEF9FEF0895FC01918D228D8F
:1001F000892F90E0805C9F4F821B91098F73992714
:100200000895FC01A48DA80FB92FB11DA35ABF4FAB
:100210002C91848D90E001968F739927848FA68905
:10022000B7892C93A089B1898C91837080648C9359
:10023000938D848D981306C00288F389E02D808108
:100240008F7D80830895EF92FF920F931F93CF933A
:10025000DF93EC0181E0888F9B8D8C8D98131AC001
:10026000E889F989808185FF15C09FB7F894EE89E8
:10027000FF896083E889F989808183708064808345
:100280009FBF81E090E0DF91CF911F910F91FF9090
:10029000EF900895F62E0B8D10E00F5F1F4F0F7338
:1002A0001127E02E8C8D8E110CC00FB607FCFACFF3
:1002B000E889F989808185FFF5CFCE010E9401018F
:1002C000F1CFEB8DEC0FFD2FF11DE35AFF4FF082C4
:1002D0009FB7F8940B8FEA89FB8980818062CFCF2A
:1002E000CF93DF93EC01888D8823B9F0AA89BB896D
:1002F000E889F9898C9185FD03C0808186FD0DC058
:100300000FB607FCF7CF8C9185FFF2CF808185FF78
:10031000EDCFCE010E940101E9CFDF91CF91089589
:100320008FE391E00E94F50021E0892B09F420E0A1
:10033000822F089580E090E0892B29F00E9490019F
:1003400081110C9400000895AF92BF92CF92DF927A
:10035000EF92FF920F931F93CF93DF936C017B017A
:100360008B01040F151FEB015E01AE18BF08C0170B
:10037000D10759F06991D601ED91FC910190F0817E
:10038000E02DC6010995892B79F7C501DF91CF9141
:100390001F910F91FF90EF90DF90CF90BF90AF90A3
:1003A000089590E0FC01E458FF4F2491FC01E255D0
:1003B000FF4F3491FC01E656FF4FE491EE23C9F064
:1003C000222339F0233001F1A8F4213019F1223031
:1003D00029F1F0E0EE0FFF1FEE58FF4FA591B49109
:1003E0008FB7F894EC91611126C030953E233C9371
:1003F0008FBF08952730A9F02830C9F0243049F77D
:10040000809180008F7D03C0809180008F778093E2
:100410008000DFCF84B58F7784BDDBCF84B58F7D3F
:10042000FBCF8091B0008F778093B000D2CF8091C6
:10043000B0008F7DF9CF3E2BDACFCF93DF9390E0E2
:10044000FC01E255FF4F249186569F4FFC01849199
:100450008823D1F090E0880F991FFC01E859FF4FE5
:10046000A591B491FC01EE58FF4FC591D491623033
:1004700071F49FB7F8943C91822F809583238C93DD
:10048000E8812E2B28839FBFDF91CF9108958FB7EE
:10049000F894EC912E2B2C938FBFF6CF3FB7F894A6
:1004A0008091370190913801A0913901B0913A01C2
:1004B00026B5A89B05C02F3F19F00196A11DB11DBF
:1004C0003FBFBA2FA92F982F8827BC01CD01620FFB
:1004D000711D811D911D42E0660F771F881F991FB6
:1004E0004A95D1F708958F929F92AF92BF92CF9283
:1004F000DF92EF92FF924B015C010E944E026B0172
:100500007C010E944E026C197D098E099F09683E8C
:10051000734081059105A8F321E0821A9108A10892
:10052000B10888EEC80E83E0D81EE11CF11C8114CE
:100530009104A104B10429F7FF90EF90DF90CF90D0
:10054000BF90AF909F908F900895CF92DF92EF92DF
:10055000FF920F931F93CF93DF93CDB7DEB7C054B5
:10056000D1400FB6F894DEBF0FBECDBF2FB7F894C1
:1005700080913B0190913C01A0913D01B0913E01E1
:100580002FBF4091FD015091FE016091FF017091DC
:1005900000028C019D01041B150B260B370BB901C2
:1005A000A801403D57406105710590F48091050216
:1005B000C05CDE4F0FB6F894DEBF0FBECDBFDF913B
:1005C000CF911F910F91FF90EF90DF90CF90089502
:1005D0008093FD019093FE01A093FF01B093000270
:1005E0001092F8011092F7011092F6011092F501A5
:1005F0001092F40162E08091F9010E941D0261E015
:1006000070E080E090E00E94730261E08091F90167
:100610000E941D0260E08091F9010E94D101809149
:10062000FA018551823020F58BE291E10197F1F7D3
:1006300062E08091F9010E941D028091060290E023
:100640008230910538F0880F991F880F991F059700
:100650000197F1F7F89480E00E948C006F3F7F4F84
:100660008F4F9F4F61F410920502789480E0A0CFE5
:1006700064E170E080E090E00E947302D9CF81E0F5
:100680000E948C006F3F7F4F8F4F9F4F61F38E0111
:100690000F5F1F4F6E018FEBC81A8EEFD80A7801DB
:1006A00080E00E948C00F7016083718382839383D2
:1006B00081E00E948C00F7016483758386839783B1
:1006C000F8E0EF0EF11CEC14FD0451F7789430E0E3
:1006D00020E0F801C080D180E280F3804481558120
:1006E00066817781FFEFCF16DF06EF06FF0631F058
:1006F0004F3F8FEF58076807780719F410920502EB
:10070000B5CFF90183E0F595E7958A95E1F7EC50CF
:10071000FE4F8081880FC416D506E606F70610F155
:1007200080832F5F3F4F085F1F4F2832310589F6C6
:100730004091F8012091F4018091F501280F3327B1
:10074000331F8091F601280F311D8091F701820F30
:10075000932F911D99274817190681F681E0809300
:10076000050226CF8160DCCF089590E080E00895F7
:10077000FC0101900020E9F73197AF01481B590BAC
:10078000BC018CED91E00C94A4018F929F92AF92EA
:10079000BF920F931F93CF93DF93CDB7DEB7A1978F
:1007A0000FB6F894DEBF0FBECDBF19A2423008F4D9
:1007B0004AE08E010F5D1F4F842E912CB12CA12C8D
:1007C000A50194010E94C709E62FB901CA01EA30C8
:1007D000F4F4E05DD801EE938D01232B242B252B1F
:1007E00079F790E080E0109719F0CD010E94B803EE
:1007F000A1960FB6F894DEBF0FBECDBFDF91CF91AB
:100800001F910F91BF90AF909F908F900895E95CDA
:10081000E1CFCF93DF93EC0160E08E810E94D101A4
:1008200061E08E810E94D10160E08E810E94D10141
:100830008BE891E00197F1F7DF91CF910895CF9286
:10084000DF92EF92FF920F931F93CF93DF936C0190
:100850007C0187E0E80EF11CD0E0C0E0062F10E03C
:10086000B8010C2E02C0759567950A94E2F7617085
:10087000F70181917F010E94D1012196C430D105F9
:1008800079F7C601DF91CF911F910F91FF90EF9003
:10089000DF90CF900C940904CF92DF92EF92FF92F9
:1008A0000F931F93CF93DF93EC01F62E642F8C816F
:1008B0000E94D1018D818F3F19F060E00E94D1012B
:1008C0000F2D10E08F8584FF25C06E0187E0C80ED4
:1008D000D11CF12CE12CB8010E2C02C07595679546
:1008E0000A94E2F76170F60181916F010E94D101D3
:1008F000FFEFEF1AFF0A88E0E816F10461F7CE0176
:10090000DF91CF911F910F91FF90EF90DF90CF90EB
:100910000C940904B80184E0759567958A95E1F710
:10092000CE010E941F046F2DCE01DF91CF911F9148
:100930000F91FF90EF90DF90CF900C941F0440E058
:10094000682F8CED91E00C944C04CF93DF938230B0
:1009500029F49091EB0198609093EB018093EF0163
:100960001092F00180E48093F10180E18093F20124
:1009700080E58093F30161E08091E0010E941D0217
:100980008091E1018F3F19F061E00E941D0261E05A
:100990008091E2010E941D02CCEDD1E09E012C5D10
:1009A00031408091EB0184FD0BC084E090E0219602
:1009B0002817390744F461E08E810E941D02EECFB2
:1009C00088E090E0F4CF8BE39DE00197F1F760E0E1
:1009D0008091E0010E94D10160E08091E2010E94DB
:1009E000D1018091E1018F3F19F060E00E94D101B7
:1009F0008091EB0184FD39C063E08CED91E00E94B1
:100A00001F04CBE4D6E4CE010197F1F763E08CED4F
:100A100091E00E941F042197F1F763E08CED91E0D3
:100A20000E941F0483E592E00197F1F762E08CEDEC
:100A300091E00E941F048091EB0180620E949F045C
:100A400084E08093EC018CE00E949F0481E00E948E
:100A50009F048BE39FE10197F1F782E08093ED0122
:100A600086E0DF91CF910C949F0480620E949F04E6
:100A70008BE496E40197F1F78091EB0180620E948C
:100A80009F0483E592E00197F1F78091EB0180628A
:100A90000E949F04D0CF41E00E944C0481E090E08E
:100AA00008951F920F920FB60F9211242F933F9328
:100AB0004F935F936F937F938F939F93AF93BF9366
:100AC000EF93FF938FE391E00E940101FF91EF917B
:100AD000BF91AF919F918F917F916F915F914F9156
:100AE0003F912F910F900FBE0F901F9018951F925E
:100AF0000F920FB60F9211242F938F939F93EF9322
:100B0000FF93E0914F01F09150018081E0915501F8
:100B1000F091560182FD1BC09081809158018F5F3A
:100B20008F7320915901821741F0E0915801F0E054
:100B3000E15CFE4F958F80935801FF91EF919F915B
:100B40008F912F910F900FBE0F901F90189580815D
:100B5000F4CF1F920F920FB60F9211242F933F9351
:100B60008F939F93AF93BF9380913B0190913C01F2
:100B7000A0913D01B0913E013091360123E0230F59
:100B80002D3758F50196A11DB11D20933601809394
:100B90003B0190933C01A0933D01B0933E018091B5
:100BA000370190913801A0913901B0913A01019635
:100BB000A11DB11D8093370190933801A093390195
:100BC000B0933A01BF91AF919F918F913F912F9137
:100BD0000F900FBE0F901F90189526E8230F0296D6
:100BE000A11DB11DD2CFEFE3F1E01382128288EE96
:100BF00093E0A0E0B0E084839583A683B78384E08C
:100C000091E09183808385EC90E09587848784ECE4
:100C100090E09787868780EC90E0918B808B81ECC9
:100C200090E0938B828B82EC90E0958B848B86ECAA
:100C300090E0978B868B118E128E138E148EA4EFFC
:100C4000B1E088E015968C9315978BE016968C93FF
:100C50001697E6EBF0E0E4911796EC931797E2EA2B
:100C6000F0E0E4911896EC93189740E85EE360E0BA
:100C700070E01D964D935D936D937C935097ECEDD2
:100C8000F1E01382128226E131E0318320839CE07F
:100C900094839FEF9583868385E0878384E08087B4
:100CA00083E0818782E08287138614861586168604
:100CB000178681E00C94A504789484B5826084BD85
:100CC00084B5816084BD85B5826085BD85B5816050
:100CD00085BD80916E00816080936E0010928100CE
:100CE0008091810082608093810080918100816089
:100CF000809381008091800081608093800080914A
:100D0000B10084608093B1008091B00081608093D5
:100D1000B00080917A00846080937A0080917A009C
:100D2000826080937A0080917A00816080937A005B
:100D300080917A00806880937A001092C10062E00E
:100D40008091F9010E941D022FB7F89480913B0118
:100D500090913C01A0913D01B0913E012FBF805D7B
:100D60009740A109B1098093FD019093FE01A093E2
:100D7000FF01B093000287E380930602C0E0D0E059
:100D80000E94A502882341F08091FA018C3009F479
:100D900079C048F48B3001F1C12CD12C80ECE82EC5
:100DA0008FE7F82E43C085518230B0F71091F601DD
:100DB000612F70E0762F662766277F778091F70195
:100DC000682B90E080E00E949E082DEC3CEC4CECFF
:100DD0005DE30E94550972C06091F60170E090E0F9
:100DE00080E00E949E086B017C011091F70117FFC3
:100DF0000AC0AC019B0160E070E080E89FEB0E94BC
:100E0000FD076B017C011F70612F70E090E080E0B6
:100E10000E94A0082DEC3CEC4CEC5DE30E945509CF
:100E2000A70196010E94FE076B017C0182E00E94EF
:100E3000A5048EE191E00E94B803A7019601C701C5
:100E4000B6010E94C209882309F441C089E291E0F9
:100E50000E94B803E091EF01E23008F0CCC0E1500D
:100E6000F0E0E452FE4F848980680E949F0420973E
:100E700009F486CF0E949001882309F481CF0E9453
:100E800000007ECF1091F601612F70E090E080E0CD
:100E90000E949E086B017C016091F7016F7070E009
:100EA00090E080E00E94A0082DEC3CEC4CEC5DE36F
:100EB0000E945509A70196010E94FE076B017C0163
:100EC00017FFB4CFF7FAF094F7F8F094AFCF4601DC
:100ED0005701E894B7F82FEF3FEF4FE75FE7C50101
:100EE000B4010E94C20981110DC02FEF3FEF4FE7FF
:100EF0005FE7C501B4010E946A0818161CF48DE270
:100F000091E0A6CF2FEF3FEF4FE75FE4C701B601B7
:100F10000E94500918161CF481E391E099CF2FEF3D
:100F20003FEF4FE75FECC701B6010E946A0887FDFB
:100F3000F3CF20E030E0A901C701B6010E946A08A2
:100F400087FF0AC041E06DE28CED91E00E944C0405
:100F5000F7FAF094F7F8F0942AE037ED43EA5BE310
:100F6000C701B6010E94FE074B015C010E946F0899
:100F70006B017C010E949E089B01AC01C501B4017C
:100F80000E94FD074B015C014AE0C701B6010E94C7
:100F9000C50341E06EE28CED91E00E944C0420E03C
:100FA00030E040E251E4C501B4010E9455094B0113
:100FB0005C010E946F086B01F12CE12C4AE0C70133
:100FC000B6010E94C503C701B6010E949E089B019D
:100FD000AC01C501B4010E94FD0720E030E040E211
:100FE00051E40E9455090E946F0890E080E04AE0B9
:100FF0000E94C5032FCFE1E033CF5058BB27AA276B
:101000000E9415080C9416090E94080938F00E94E5
:101010000F0920F039F49F3F19F426F40C940509C8
:101020000EF4E095E7FB0C94FF08E92F0E942709D6
:1010300058F3BA17620773078407950720F079F40D
:10104000A6F50C9449090EF4E0950B2EBA2FA02DAD
:101050000B01B90190010C01CA01A0011124FF2765
:10106000591B99F0593F50F4503E68F11A16F04060
:10107000A22F232F342F4427585FF3CF469537955F
:101080002795A795F0405395C9F77EF41F16BA0B24
:10109000620B730B840BBAF09150A1F0FF0FBB1FD2
:1010A000661F771F881FC2F70EC0BA0F621F731F1B
:1010B000841F48F4879577956795B795F7959E3F78
:1010C00008F0B0CF9395880F08F09927EE0F979509
:1010D000879508950E94DB0808F481E008950E9436
:1010E0002F0988F09F5798F0B92F9927B751B0F082
:1010F000E1F0660F771F881F991F1AF0BA95C9F79C
:1011000014C0B13091F00E944909B1E008950C94E7
:101110004909672F782F8827B85F39F0B93FCCF39A
:10112000869577956795B395D9F73EF49095809518
:10113000709561957F4F8F4F9F4F0895E89409C038
:1011400097FB3EF490958095709561957F4F8F4FFA
:101150009F4F9923A9F0F92F96E9BB279395F69510
:10116000879577956795B795F111F8CFFAF4BB0F8E
:1011700011F460FF1BC06F5F7F4F8F4F9F4F16C0F2
:10118000882311F096E911C0772321F09EE8872F7C
:10119000762F05C0662371F096E8862F70E060E038
:1011A0002AF09A95660F771F881FDAF7880F9695B1
:1011B000879597F90895990F0008550FAA0BE0E855
:1011C000FEEF16161706E807F907C0F01216130609
:1011D000E407F50798F0621B730B840B950B39F449
:1011E0000A2661F0232B242B252B21F408950A26AF
:1011F00009F4A140A6958FEF811D811D089597F9EF
:101200009F6780E870E060E008959FEF80EC0895AC
:1012100000240A94161617061806090608950024D5
:101220000A9412161306140605060895092E03944F
:10123000000C11F4882352F0BB0F40F4BF2B11F4C3
:1012400060FF04C06F5F7F4F8F4F9F4F089557FD22
:101250009058440F551F59F05F3F71F04795880F24
:1012600097FB991F61F09F3F79F0879508951216BB
:1012700013061406551FF2CF4695F1DF08C0161667
:1012800017061806991FF1CF869571056105089418
:101290000895E894BB2766277727CB0197F908952F
:1012A0000E94DB0808F48FEF08950E9468090C94EF
:1012B00016090E94080938F00E940F0920F09523B2
:1012C00011F00C94FF080C94050911240C944A09A0
:1012D0000E94270970F3959FC1F3950F50E0551FA9
:1012E000629FF001729FBB27F00DB11D639FAA277B
:1012F000F00DB11DAA1F649F6627B00DA11D661FCA
:10130000829F2227B00DA11D621F739FB00DA11DEA
:10131000621F839FA00D611D221F749F3327A00DA4
:10132000611D231F849F600D211D822F762F6A2F40
:1013300011249F5750409AF0F1F088234AF0EE0FA5
:10134000FF1FBB1F661F771F881F91505040A9F7D2
:101350009E3F510580F00C94FF080C944A095F3FB2
:10136000E4F3983ED4F3869577956795B795F7950E
:10137000E7959F5FC1F7FE2B880F911D9695879586
:1013800097F908950E94DB08880B990B0895A1E254
:101390001A2EAA1BBB1BFD010DC0AA1FBB1FEE1FEF
:1013A000FF1FA217B307E407F50720F0A21BB30B3A
:1013B000E40BF50B661F771F881F991F1A9469F7B6
:1013C00060957095809590959B01AC01BD01CF0112
:1013D0000895EE0FFF1F0590F491E02D0994F89405
:0213E000FFCF3D
:1013E200000000002301A401C4007001F500D30035
:1013F200E700000000004B05A401B503B4034E68EA
:1014020069657420646F3A20006E616E00696E66D1
:06141200006F7666000089
:00000001FF
