:100000000C945C000C9479000C9479000C947900A9
:100010000C9479000C9479000C9479000C9479007C
:100020000C9479000C9479000C9479000C9479006C
:100030000C9479000C9479000C9479000C9479005C
:100040000C940B010C9479000C9479000C947900B9
:100050000C9479000C9479000C9479000C9479003C
:100060000C9479000C947900000000080002010053
:100070000003040700000000000000000000000072
:10008000250028002B0000000000240027002A0083
:10009000040404040404040402020202020203032E
:1000A0000303030301020408102040800102040836
:1000B000102001020408102011241FBECFEFD8E049
:1000C000DEBFCDBF11E0A0E0B1E0E8E3F4E002C0A4
:1000D00005900D92AA39B107D9F721E0AAE9B1E05C
:1000E00001C01D92A53AB207E1F70E9455010C9498
:1000F0001A020C94000090E0FC01EC55FF4F249193
:1001000080579F4FFC018491882399F090E0880FDD
:10011000991FFC01EA57FF4FA591B491FC01E458E7
:10012000FF4F859194918FB7F894EC91E22BEC936B
:100130008FBF089590E0FC01E859FF4F2491FC0126
:10014000EC55FF4F3491FC01E057FF4FE491EE2353
:10015000C9F0222339F0233001F1A8F4213019F13C
:10016000223029F1F0E0EE0FFF1FE458FF4FA59178
:10017000B4918FB7F894EC91611126C030953E236D
:100180003C938FBF08952730A9F02830C9F0243060
:1001900049F7809180008F7D03C0809180008F7728
:1001A00080938000DFCF84B58F7784BDDBCF84B5AB
:1001B0008F7DFBCF8091B0008F778093B000D2CF3E
:1001C0008091B0008F7DF9CF3E2BDACF3FB7F89406
:1001D00080919F019091A001A091A101B091A201F5
:1001E00026B5A89B05C02F3F19F00196A11DB11D92
:1001F0003FBFBA2FA92F982F8827BC01CD01620FCE
:10020000711D811D911D42E0660F771F881F991F88
:100210004A95D1F708951F920F920FB60F921124AD
:100220002F933F938F939F93AF93BF9380919B01A5
:1002300090919C01A0919D01B0919E0130919A01F5
:1002400023E0230F2D3758F50196A11DB11D2093F2
:100250009A0180939B0190939C01A0939D01B09380
:100260009E0180919F019091A001A091A101B09168
:10027000A2010196A11DB11D80939F019093A00141
:10028000A093A101B093A201BF91AF919F918F91D3
:100290003F912F910F900FBE0F901F90189526E859
:1002A000230F0296A11DB11DD2CF789484B5826030
:1002B00084BD84B5816084BD85B5826085BD85B50A
:1002C000816085BD80916E00816080936E00109288
:1002D0008100809181008260809381008091810003
:1002E0008160809381008091800081608093800094
:1002F0008091B10084608093B1008091B0008160F2
:100300008093B00080917A00846080937A0080911D
:100310007A00826080937A0080917A008160809375
:100320007A0080917A00806880937A001092C100F0
:100330008DE00E947B008CE00E947B008BE00E949D
:100340007B008AE00E947B0089E00E947B0088E0BD
:100350000E947B0087E00E947B0084E00E947B007B
:1003600083E00E947B0037E0332E40E0E42E40E043
:10037000F42E10E000E061E084E00E949A0060E06A
:1003800083E00E949A001092A4011092A301309E73
:100390006001319ED00C1124C091A301D091A40121
:1003A000C730D105B4F4F601EC0FFD1FEE0FFF1FAF
:1003B000E25FFE4FDE01AA0FBB1FA050BF4F60815E
:1003C0008C910E949A002196D093A401C093A3011E
:1003D000E3CF0E94E6004B015C0184E6482E512CDD
:1003E000612C712C0E94E600681979098A099B0921
:1003F000683E734081059105A8F321E0421A510837
:100400006108710888EE880E83E0981EA11CB11C5B
:10041000411451046104710429F70F5F1F4F0A3022
:10042000110509F0A8CFE114F10409F4A2CF0E944C
:0804300000009FCFF894FFCFFC
:100438000700080009000A000B000C000D0000006E
:10044800010001000100010001000100000000009E
:100458000000000001000100000001000000010090
:10046800010000000100010001000000000001007F
:10047800010001000100010001000000000001006E
:10048800010000000100010000000100010000005F
:10049800010001000100010001000100000001004D
:1004A8000000000000000000010001000100010040
:1004B800010001000100010001000100010001002C
:0A04C8000000010001000100010026
:00000001FF
