:100000000C945C000C9479000C9479000C947900A9
:100010000C9479000C9479000C9479000C9479007C
:100020000C9479000C9479000C9479000C9479006C
:100030000C9479000C9479000C9479000C9479005C
:100040000C9440010C9479000C9479000C94790084
:100050000C9479000C9479000C9479000C9479003C
:100060000C9479000C947900000000080002010053
:100070000003040700000000000000000000000072
:10008000250028002B0000000000240027002A0083
:10009000040404040404040402020202020203032E
:1000A0000303030301020408102040800102040836
:1000B000102001020408102011241FBECFEFD8E049
:1000C000DEBFCDBF11E0A0E0B1E0E2EFF4E002C09E
:1000D00005900D92AA39B107D9F721E0AAE9B1E05C
:1000E00001C01D92A73AB207E1F70E948A010C9461
:1000F00077020C94000090E0FC01EC55FF4F249136
:1001000080579F4FFC018491882399F090E0880FDD
:10011000991FFC01EA57FF4FA591B491FC01E458E7
:10012000FF4F859194918FB7F894EC91E22BEC936B
:100130008FBF089590E0FC01E859FF4F2491FC0126
:10014000EC55FF4F3491FC01E057FF4FE491EE2353
:10015000C9F0222339F0233001F1A8F4213019F13C
:10016000223029F1F0E0EE0FFF1FE458FF4FA59178
:10017000B4918FB7F894EC91611126C030953E236D
:100180003C938FBF08952730A9F02830C9F0243060
:1001900049F7809180008F7D03C0809180008F7728
:1001A00080938000DFCF84B58F7784BDDBCF84B5AB
:1001B0008F7DFBCF8091B0008F778093B000D2CF3E
:1001C0008091B0008F7DF9CF3E2BDACF3FB7F89406
:1001D00080919F019091A001A091A101B091A201F5
:1001E00026B5A89B05C02F3F19F00196A11DB11D92
:1001F0003FBFBA2FA92F982F8827BC01CD01620FCE
:10020000711D811D911D42E0660F771F881F991F88
:100210004A95D1F708958F929F92AF92BF92CF9255
:10022000DF92EF92FF920E94E6004B015C0182E3B5
:10023000C82ED12CE12CF12C0E94E6006819790916
:100240008A099B09683E734081059105A8F321E066
:10025000C21AD108E108F10888EE880E83E0981EE2
:10026000A11CB11CC114D104E104F10429F7FF90D1
:10027000EF90DF90CF90BF90AF909F908F900895B8
:100280001F920F920FB60F9211242F933F938F93CB
:100290009F93AF93BF9380919B0190919C01A091FC
:1002A0009D01B0919E0130919A0123E0230F2D37DB
:1002B00058F50196A11DB11D20939A0180939B01D1
:1002C00090939C01A0939D01B0939E0180919F010A
:1002D0009091A001A091A101B091A2010196A11D50
:1002E000B11D80939F019093A001A093A101B093B1
:1002F000A201BF91AF919F918F913F912F910F904C
:100300000FBE0F901F90189526E8230F0296A11D8F
:10031000B11DD2CF789484B5826084BD84B58160EC
:1003200084BD85B5826085BD85B5816085BD8091C0
:100330006E00816080936E00109281008091810038
:100340008260809381008091810081608093810030
:10035000809180008160809380008091B1008460F2
:100360008093B1008091B00081608093B000809153
:100370007A00846080937A0080917A008260809312
:100380007A0080917A00816080937A0080917A006F
:10039000806880937A001092C1008DE00E947B00FB
:1003A0008CE00E947B008BE00E947B008AE00E9430
:1003B0007B0089E00E947B0088E00E947B0087E050
:1003C0000E947B0084E00E947B0083E00E947B000F
:1003D00047E0D42E00E010E0D0E0C0E060E084E030
:1003E0000E949A0061E083E00E949A001092A601A8
:1003F0001092A501E090A501F090A60187E0E81613
:10040000F10404F58091A3019091A401D89EF0011C
:10041000D99EF00D1124EE0DFF1DEE0FFF1FE25FC0
:10042000FE4FD701AA0FBB1FA050BF4F60818C9118
:100430000E949A008FEFE81AF80AF092A601E09263
:10044000A501D8CF0E940B0161E084E00E949A00D0
:1004500060E083E00E949A001092A6011092A5012C
:10046000DC9E5001DD9EB00C1124E090A501F090BF
:10047000A60187E0E816F104C4F4F501EE0DFF1DB6
:10048000EE0FFF1FE25FFE4FD701AA0FBB1FA05068
:10049000BF4F60818C910E949A008FEFE81AF80A92
:1004A000F092A601E092A501E0CF0E940B01C930B5
:1004B000D105B9F48091A3019091A40101968A30ED
:1004C00091055CF49093A4018093A301011511059B
:1004D00009F482CF0E9400007FCF1092A4011092F5
:1004E000A3012196CA30D10509F078CFEFCFF89457
:0204F000FFCF3C
:1004F2000700080009000A000B000C000D000000B4
:1005020001000100010001000100010000000000E3
:1005120000000000010001000000010000000100D5
:1005220001000000010001000100000000000100C4
:1005320001000100010001000100000000000100B3
:1005420001000000010001000000010001000000A4
:100552000100010001000100010001000000010092
:100562000000000000000000010001000100010085
:100572000100010001000100010001000100010071
:0A058200000001000100010001006B
:00000001FF
